:020000041000EA
:1000000000B5324B212058609868022188439860DF
:10001000D860186158612E4B002199600221596106
:100020000121F02299502B49196001219960352056
:1000300000F044F80222904214D00621196600F024
:1000400034F8196E01211966002018661A6600F04E
:100050002CF8196E196E196E052000F02FF8012189
:100060000842F9D1002199601B49196000215960AB
:100070001A491B48016001219960EB211966A021F2
:10008000196600F012F800219960164914480160C1
:100090000121996001BC002800D000471248134993
:1000A000086003C880F30888084703B5996A0420EC
:1000B0000142FBD001200142F8D103BD02B5186610
:1000C0001866FFF7F2FF186E186E02BD00000240BE
:1000D000000000180000070000035F00212200005C
:1000E000F4000018222000A00001001008ED00E03C
:1000F00000000000000000000000000074B24E7A12
:10010000B8FB0320C10100105D140010591B001042
:1001100000000000000000000000000000000000DF
:100120000000000000000000000000005D1400104E
:1001300000000000000000005D1400105D140010BD
:100140005D1400105D1400105D1400105D140010AB
:100150005D1400105D1400105D1400105D1400109B
:100160005D1400105D1400105D1400105D1400108B
:100170005D1400105D1400105D1400105D1400107B
:100180005D1400105D1400105D1400105D1400106B
:100190005D1400105D1400105D1400105D1400105B
:1001A0005D1400105D1400105D1400105D1400104B
:1001B0005D1400105D1400105D1400105D1400103B
:1001C00001F04FF9084809490022814201D004C0DA
:1001D000FBE707480749084A814202D008CA08C01D
:1001E000FAE700F0CFFB00DEF0FB0320FCFB03206E
:1001F000B8FB0320F0FB03203C1F0010194A936F4B
:100200009B0808D210665166FFE7FFE7FFE7FFE7AC
:10021000516F106F704770B5136E546E556F166F37
:10022000FFF7F0FF136654665567166770BDC0464A
:100230000C4A936F9B0808D29066D166FFE7FFE7F0
:10024000FFE7FFE7516F106F704770B5136E546E84
:10025000556F166FFFF7F0FF136654665567166704
:1002600070BD0000000000D080B500AFC1B202290F
:1002700009D0054900228A71044901220A6000065A
:1002800001D001F05DFC80BDF4FB03207C0100D0B7
:1002900080B500AF88B0984C20467C3801260660B7
:1002A000204678380660204674380660204670384C
:1002B000066020466C380660204668380660204696
:1002C0006438066020466038066020465C38066068
:1002D000204658380660204654380660204650387C
:1002E000066020464C3806602046483806602046A6
:1002F0004438066020464038066020463C38066098
:1003000020463838066020463438066020463038AB
:10031000066020462C3806602046283806602046B5
:100320002438066020462038066020461C380660C7
:1003300020461838066020461438066020461038DB
:10034000066020460C380660204608380660201FEC
:1003500006602660694801F099F801F085FBC0B29B
:10036000674DE979002900D0E8E2EE71022806D055
:100370000021A9712660002801D001F0E1FB01F005
:10038000E6FB044601F0DAFB2878E10706D10028F5
:1003900000D0D8E22E7001F0D3FB03E0002800D09B
:1003A000D3E22E705748011F5522039252010A6072
:1003B000E0328260544A0A600168002908D401686A
:1003C000002905D40168002902D401680029F3D569
:1003D000832080004D4908604D4D00200490E86363
:1003E0000121286888432860A868012811D028685E
:1003F00088432860A86801280BD0286888432860B3
:10040000A868012805D0286888432860A8680128C2
:10041000E7D1079606910320C3432A460C3A106899
:1004200018401060291F0868012811D01068184072
:100430001060086801280BD0106818401060086828
:10044000012805D010681840106008680128E2D122
:10045000069800032F4C083C0594059C24688443AF
:10046000059E34602B4E3468044208D1346804423F
:1004700005D13468044202D134680442F3D0264CDA
:100480002D20029060600498A060069820607D2076
:10049000A060606821260196B04360602068002853
:1004A00008D42068002805D42068002802D42068D9
:1004B0000028F3D531204003E060666808200090F2
:1004C00086436660069E2C68B4432C60AC68012CA1
:1004D00036D02C68B4432C60AC68012C30D02C682A
:1004E000B4432C60AC68012C2AD02C68B4432C6037
:1004F000AC68012CE7D123E07C0100D002000000B1
:10050000F4FB03200440024000B0FA002C800540B8
:100510003C80004008C000400080024014681C403D
:1005200014600C68012C11D014681C4014600C6815
:10053000012C0BD014681C4014600C68012C05D0F1
:1005400014681C4014600C68012CE7D173030598F3
:1005500004689C430460FE4804681C4208D1046897
:100560001C4205D104681C4202D104681C42F3D02D
:10057000F84B02985860049C9C601E6064249C6048
:100580005C68019884435C601C68002C08D41C687B
:10059000002C05D41C68002C02D41C68002CF3D558
:1005A00003980403DC605C68009884435C6030025C
:1005B0000390284608380368FF2B02D80368039B82
:1005C0000360136802241C43B44314600A68042ABD
:1005D00008D00A68042A05D00A68042A02D00A68EA
:1005E000042AF3D10168039B03606868984201D232
:1005F00068686B602868B0432860A868012811D03B
:100600002868B0432860A86801280BD02868B04348
:100610002860A868012805D02868B0432860A86829
:100620000128E7D12968E020814329602968314306
:100630002960A968022908D0A968022905D0A968FB
:10064000022902D0A9680229F3D169686B60E969BF
:10065000994201D2E969EB61AA69BF490A40AA61DE
:10066000AA698243AA61F402AA692243AA61EA69DB
:10067000EB61AA6A9A4201D2AA6AAB626A6A0A402C
:100680006A626A6A82436A626A6A22436A62AA6A20
:10069000AB62B2046B6B9B0C01D16B6B6A632B6B0F
:1006A0000B402B63C643286B30402863286B2043E4
:1006B0002863686B6A63E8680840E8600B2001F013
:1006C00041FAE8683040E860E8682043E860A34EFB
:1006D0003068042101433160059A1068039B184378
:1006E000106010682021084310609D48049D05613A
:1006F000056010688843106095490868800608D432
:100700000868800605D40868800602D40868800658
:10071000F3D5059A1068984310600868184208D10C
:100720000868184205D10868184202D108681842C2
:10073000F3D08C4805E09A0083588B438350012CFA
:1007400059D01D2D04D12B461D2B069904D904E048
:100750006B1C1D2B069900D800211D2D079A00D077
:100760000A46AC00055940218D430551002A42D16B
:100770001D2B07D11A461D2A07D901241D2B079DC1
:1007800007D107E05A1C1D2AF7D800241D2B079D0E
:1007900000D025469B00C4588C43C450002D2AD15C
:1007A0001D2A07D113461D2B07D901241D2A079D99
:1007B00007D107E0531C1D2BF7D800241D2A079DE5
:1007C00000D02546920084588C438450002D12D1CD
:1007D0001D2B07D11D461D2D07D901221D2B079C5E
:1007E000A9D006E05D1C1D2DF7D800221D2B079C0B
:1007F000A1D014469FE701235C04594A0694546132
:10080000426C0A4342645848016805220A431A218F
:100810008A4302601C04079302E03068984330600A
:10082000544800F033FE07994D48069A42605048FC
:1008300070600025B5603068084330603068204241
:1008400008D13068204205D13068204202D130689A
:100850002042F3D03068204208D13068204205D1D0
:100860003068204202D130682042F3D03068204204
:1008700008D13068204205D13068204202D130686A
:100880002042F3D039487060B5603068084330606A
:100890003068204208D13068204205D130682042BB
:1008A00002D130682042F3D030688843306032484B
:1008B00000F0ECFD079B2A48069981602C48706087
:1008C000B5603068184330603068204208D1306825
:1008D000204205D13068204202D130682042F3D056
:1008E0003068204208D13068204205D1306820426B
:1008F00002D130682042F3D03068204208D13068FD
:10090000204205D13068204202D130682042F3D025
:1009100016487060B5603068184330603068204217
:1009200000D07AE73068204200D076E73068204275
:1009300000D072E730682042F0D06EE7FFF794FCF9
:100940000F4800F095F901F0FBF80C4800F090F921
:1009500008C0004000C00240FFF7FFFF10E000E0C9
:10096000100000D004C001408C4001409FACB90091
:10097000FFFFFF0004000000030000008C1C0010BB
:100980009C1C001080B500AFFFF782FCF0B503AFF0
:1009900089B000240894444B05AD0BC51069049040
:1009A00000284BD0506900286AD018214143039198
:1009B00007214907401E8843401C01909468029219
:1009C000156800266A68002A06D00698C368296858
:1009D00005989847002861D104988019018900235F
:1009E00000290BD001291A4603D1C168C90061183A
:1009F0008A880499895B022905D10CE0428904990F
:100A0000895B022907D0012904D14168C900611816
:100A10008B8800E0438805A9CB818A8142690792CF
:100A20000069C200A058A21852689047002835D12A
:100A3000083518360398B042C4D11FE0D0680028AA
:100A40001ED09468C0002518029216680838C008A5
:100A5000401C01907268002A06D00698C36831686D
:100A600005989847002819D105CC05A9083C90475E
:100A7000002813D108360834AC42EBD1029A019C0D
:100A8000506884420DD2E000126811581018426874
:100A90000698C36805989847002802D0012009B03D
:100AA000F0BD002009B0F0BD200000E0F0B503AFBC
:100AB0008BB05C4B0A935B1C0890806803400591E7
:100AC00001D02B2101E01121090407910126F10534
:100AD0000140CD0D590D8B18089CA1898B420692BF
:100AE0001CD2039109950496C10129D40A990140A9
:100AF0000A910399CD1A4000800F0026099B8000BF
:100B000001A1085831468746AD0B0010190B0010A3
:100B1000A90B0010190B0010294647E011CC0A90D0
:100B20002146079A2B4600F083F8002805D1E36898
:100B30000A980599069A9847064630460BB0F0BDCC
:100B40000293A5683848284038494018A060E068FA
:100B5000019041CC0A903146079A099B00F068F851
:100B6000002835D1099502980399081A002485B206
:100B7000A0B2A84207D2326930210A989047641C7B
:100B80000028F5D024E0F3680A980599069A98475A
:100B90000028049ED1D10898099981600199C1600B
:100BA000002630460BB0F0BDA8B241080395256879
:100BB000606808900C46A0B2B1B281420CD208988D
:100BC000026928460A999047099B761C0028F2D0B2
:100BD000049E30460BB0F0BD28460899079A00F0F5
:100BE00027F80028049EA8D10898C36828460599CC
:100BF000069A98470028A0D10398001B002486B2CB
:100C00000994A0B2B04208D20898026928460A990D
:100C10009047641C0028F4D0DAE7099E30460BB0F8
:100C2000F0BDC046FFFF1F000000E09F3000002025
:100C3000F0B503AF81B01C460D46112109048A426C
:100C40000AD02B69064611469847014630460029CE
:100C500002D0012001B0F0BD002C05D0EB680022CD
:100C60002146984701B0F0BD002001B0F0BDD4D4BA
:100C700080B500AF024602482B2100F056F8C0466E
:100C8000DC1D001080B500AF022801D300F002F88F
:100C900000F020F880B500AF8CB0012101910090E8
:100CA000002006900220039007490291059008A8B1
:100CB000049006480B9001A90A9109906846089093
:100CC00002A8034900F026F8CC1D00106D13001097
:100CD000C01E001080B500AF8CB0012001900090C4
:100CE000002006900220039007490291059008A871
:100CF000049006480B9001A90A9109906846089053
:100D000002A8034900F006F8A81D00106D1300109A
:100D1000C01E001080B500AF84B001AA012313816A
:100D200002910190104600F0FFFD80B500AF88B041
:100D3000002304930124019406AC0094039304233C
:100D400002930791069068461146FFF7E3FFD4D45B
:100D5000F0B503AF95B00A4601680A914668029261
:100D600090680090C000810F00D1BDE200281BD424
:100D7000102E01963BD2002E00D109E2032230460C
:100D800010401490042E00D305E200210846149A66
:100D9000002A00D172E20A9A53564022D24393426B
:100DA00000DD6FE203466EE20298C089002800D1A0
:100DB000D5E10A9DA9190026024605E0651C2C1BF9
:100DC000A619521E00D1CFE18D4200D1CAE12C46B6
:100DD0000023ED56002DF1D5EDB2E02D03D3F02D1B
:100DE00003D3251DEBE7A51CE9E7E51CE7E7032195
:100DF000CA430A98C51C129215402C1A321B13467E
:100E000003910B40002185421491139221D00A983E
:100E1000401B12998842119400D8E7E10022114644
:100E20000A9880564024E643B04200DD491C119CDC
:100E3000012C0DD00A98801801228256B24200DDA2
:100E4000491C022C04D002228056B04200DD491C0D
:100E5000139A002B1ED0129810402A1800201490CC
:100E600010564024E443A04201DD01201490012BE0
:100E70000FD001201056A04202DD1498401C14909F
:100E8000022B06D002201056A04202DD1498401C0E
:100E90001490139A920814984318F94C15E0002006
:100EA00013900C9A1E460998121A07982D18139B36
:100EB000180AFB490B400840C018FA494843000C87
:100EC00083190898002800D052E1002A00D14DE192
:100ED000C02A0C9200D3C02210461146039A10403B
:100EE000089009918E003F2000013040059507963B
:100EF000D5D0049328180B903046103801094B1CAC
:100F000019461140069129461031302833D200206D
:100F100013902B460C9A06980028049E059DC2D07B
:100F20000B9881420E4601D00E4610361291596838
:100F30008A09C943C909114321401A68184693090F
:100F4000D243D2091A432240139BD21889188268CF
:100F50009309D243D2091A4322405118C268930917
:100F6000D243D2091A43224053180698012800D0D0
:100F7000B1E01393F0E093431193002013900E46D9
:100F800086E0129048680C460E918109C043C00962
:100F9000084318400F9021688809C943C9090143D3
:100FA00019400D91306810928409C043C109214352
:100FB000194068688409C043C009204318402C6860
:100FC000A209E443E40914431C40139AA2188018B0
:100FD000AA689409D243D20922431A401018EA6839
:100FE0009409D243D20922431A401018149D2A684A
:100FF0009409D243D20922431A4010186A6894090E
:10100000D243D20922431A401018AA689409D24345
:10101000D20922431A401018EA689409D243D2092F
:1010200022431C46109B22401018081871688A0938
:10103000C943C909114321400818B1688A09C94345
:10104000C909114321400818F1688A09C943C9092F
:101050001143214008180D9908180F9908180E9D82
:10106000A9688A09C943C909114321400818E968D8
:101070008A09C943C90911432140081813901299DC
:101080001198001F11900E461D460C9A00D142E7A0
:101090000B98864214960AD1864231460CD1814281
:1010A0000A460ED123468242104611D169E7149EAA
:1010B000103686423146F2D03146103181420A461E
:1010C000F0D00A46103223468242104600D158E73B
:1010D0001046103055E71396129841688A09C943A3
:1010E000C90911432140026896091496D243D209D6
:1010F000149E32432240D218891882689309D24341
:10110000D2091A4322405118C2689309D243D20926
:101110001A4322405018069902291CD0139E716868
:101120008A09C943C9091143214032689309D2434E
:10113000D2091A43224012188918B2689309D2437F
:10114000D2091A4322405118F0688209C043C009ED
:101150001043204040181390049E0C9AA3E60026EA
:10116000831BAAE0831AA8E0C31AA6E0019EA4E0AC
:101170000646FC20099901408900059D68588209AE
:10118000C043C00910432040012E57D1019E6BE09F
:1011900000231E4691E00C2333400021084603E063
:1011A000091D8B4200D1F2E50A9C65564024E443B8
:1011B000A54200DD401C0A9D6D180126AE57A642CF
:1011C00008DC0226AE57A64209DC019EAD56A542B8
:1011D000E6DD09E0401C0226AE57A642F5DD401CC4
:1011E000019EAD56A542DBDD401CD9E70022114629
:1011F00002E0121D00D113E60A9880564026F643FD
:10120000B04200DD491C0A98801801240457B442FA
:1012100008DC02240457B44209DC039C0057B042A6
:10122000E7DD09E0491C02240457B442F5DD491CFE
:10123000039C0057B042DCDD491CDAE72A4625460C
:101240001C4651184A689309D243D2091A432A40CE
:101250001018022E019E06D089688A09C943C9095F
:101260001143294008182346010A3E4A1040114004
:1012700008183B494143080CC3181EE003461CE014
:1012800001010101431C1498012816D018460A9B3D
:1012900059180123CB56934206DC034605E0C046AD
:1012A000FF00FF0001000100431C1498022804D035
:1012B00002200856904200DD5B1C02988089834220
:1012C00012D20196284A00990A401392C21A480085
:1012D000800F00263446C046784400794000874499
:1012E0000D010B0D144609E0029903C9CB680A9958
:1012F0003246984715B0F0BD90B244081292029859
:10130000016814914568A0B2B1B2814209D22A693C
:10131000149813999047761C0028F4D0012015B03A
:10132000F0BDEB6814980A99019A9847014601208C
:10133000002910D111901298001B002486B212943B
:10134000A0B2B04209D22A69149813999047641C3C
:101350000028F5D0119815B0F0BD129815B0F0BD69
:1013600001000100FF00FF00FFFF1F00F0B503AF09
:1013700087B001910668F0087D2800964BD30A25B6
:101380003046324C2146FEF739FF03904443301B70
:10139000029082B292082E484243530C28465D00C8
:1013A0002C494C5D04AA1218111F0C70D11E294C37
:1013B0006419054664780C70642159430298401AF8
:1013C00080B24000234C215C931E19702018407895
:1013D000511E039A08702D1F1F4886421646CFD80B
:1013E000092A1CD990B2800819494143490C64204C
:1013F0004843101A80B24200164B9C5CA81E2E4631
:1014000004AD2C54AC19641E9A1852782270009ABC
:10141000002A09D10AE00A253246092AE2D81146F3
:101420002846009A002A01D0002906D04900094A1E
:1014300051184978401E04AA115404A909180A2217
:10144000121A0198FFF732FB07B0F0BD1027000019
:101450007B140000AC1C00107F96980080B500AF94
:10146000FEE780B500AF80BD80B500AF82B000F070
:10147000E9F801A804490180022100F0ABF9FFF767
:10148000F0FF02B080BDC04605000000D0B502AF3D
:1014900082B0044600F0D6F801A80480022100F0D2
:1014A00099F9FFF7DEFF00F011F902B0D0BD80B569
:1014B00000AF0846114600F08DF9002080BDF0B560
:1014C00003AF81B000200090802903D268460170EC
:1014D000012128E03F22084610407F23DC43001909
:1014E0008D09CB0A06D169464870C02005430D70AE
:1014F000022118E00B0B15402D190E0C07D169467F
:1015000088704D70E02003430B7003210BE00F2621
:10151000F643890C314313401A196B46D8709D70FD
:101520005A7019700421684600F054F9002001B087
:10153000F0BDD4D480B500AF0A464968012900D077
:1015400000290249FFF722FA80BDC0463C1E001068
:1015500080B500AF02684068C3681046984780BDF8
:10156000F0B503AF83B0029104460020002A11D0E9
:101570002569E368BFF35F8F0126B1029D4204D95C
:10158000DE43AD19002D0BD104E0002D04D0CD1A9F
:10159000002D05D103B0F0BDDD436D18002DF9D04D
:1015A000954200D31546EE188E4201910DD9C81A06
:1015B00000906068C0180299009A00F09BFA0098A9
:1015C000029909182A1A606803E06068C018029935
:1015D0002A4600F08FFA0198401E0640BFF35F8F45
:1015E000E660284603B0F0BDF0B503AF83B0164601
:1015F00001229402A64200D32646C3689D19BFF378
:101600005F8FA54202900ED9E21A01924268D0186B
:101610000091019A00F06EFA019800990918321AA7
:101620000298406802E04268D018324600F062FA40
:10163000601E0540BFF35F8F0298C560304603B05F
:10164000F0BDD4D4B0B502AF86B000F00DFA1949A0
:101650004A78002A1ED1C2B2012048708A70CA7826
:10166000002A15D1C870684600210170144CE06A48
:1016700003210140022901D0134D00E0114D18341F
:10168000694601222046A8470028F9D001280ED13A
:1016900006B0B0BD002004900121019106490091DF
:1016A00003900420029068460449FFF733FBFFF7DC
:1016B000E9FAC046F4FB0320741E00107C1E0010E3
:1016C000C0FB032061150010E9150010F0B503AF51
:1016D00087B039494878002860D00879002833D08D
:1016E000072811D20021C94381403348407908437B
:1016F0007F21014001A80170304CE06A03210140C4
:1017000002290ED02F4D0DE079308021014301A830
:1017100001702A4CE06A0321014002290AD0294DB8
:1017200009E0274D183401A901222046A8470028C6
:10173000F9D007E0224D183401A901222046A8471C
:101740000028F9D0012827D101A8002202701B4CE3
:10175000E06A032101400229009201D0194E00E005
:10176000174E183401A9012520462A46B047002803
:10177000F8D0012810D11049009A4A710A7188786E
:101780004A70022806D08A710F490D60002801D0E6
:1017900000F0D6F907B0F0BDFFF774FA002005900D
:1017A000012102910949019104900420039001A8AC
:1017B0000749FFF7AFFAC046F4FB0320C0FB032044
:1017C00061150010E91500107C0100D0A81E001062
:1017D000B01E0010F0B503AF87B0002900D196E02D
:1017E000044646184C48007901960AE0012800D0CA
:1017F0008FE00020484948710871641CB44200D150
:1018000085E02178C2B2072A18D200294AD002A85E
:1018100001704248C06A032101400229404D00D0B6
:10182000404D3E48183002A90122A8470028F8D0B0
:1018300001286ED1384A517910793AE0002951D007
:1018400005A801703548C06A0321009108400228AC
:10185000334E00D0334E314D183505A901222846AC
:10186000B0470028F7D0012853D12B490879401CF4
:101870000871C1B28629019EBFD106A8FF2101705F
:101880002648C06A009908400228254E00D0254EFF
:1018900006A901222846B0470028F9D0012838D1EE
:1018A000019EA6E7012393401B49497919431A4A2F
:1018B0005171401C1071C2B2072A9ED10A069CD0F9
:1018C00003A801701548C06A032101400229144D84
:1018D00000D0144D1148183003A90122A847002850
:1018E000F8D083E779308021014304A801700B48C8
:1018F000C06A032101400229094D00D0094D074863
:10190000183004A90122A8470028F8D06EE707B0D4
:10191000F0BDFFF7B7F9C046F4FB0320C0FB03207E
:1019200061150010E915001080B500AF8CB00546B8
:1019300000F004F915480178002925D1012404702C
:101940000095FFF791FD03A8114901800221FFF7DF
:1019500041FF1048029068460190002007900494CF
:101960000D480390069409A805900C480A9001A818
:1019700009900BA80A4903AAFFF708F8094821466D
:10198000FFF728FFFFF7A2FE00F00EF8F0FB0320A0
:1019900001000000D01E0010301E00105115001074
:1019A0003C1E0010381E001080B500AF00F0D2F8C9
:1019B000F0B503AF91B000680268019245680E6807
:1019C0004C68E36823490C22304602939847012172
:1019D000002821D1009168680A90286809900020A9
:1019E0000790032004901C49039106900BA80590D2
:1019F0001A48109029460C310F910E9008350D951C
:101A000017480C9009A80B9003AA30462146FEF710
:101A1000BDFF002803D00099084611B0F0BD114960
:101A200002223046029B984700280099F4D10BA867
:101A3000019D0ECD0EC00ECD0EC00C98012800D019
:101A400000280BAA30462146FEF7A0FF01460846B3
:101A500011B0F0BD201E0010081E00106D13001004
:101A6000510D00102C1E0010F0B503AF87B000F030
:101A70006EF801210D2212071268D2B2002A0C461C
:101A800002D0012A20D10224164DAA79BFF35F8F1C
:101A9000A24202D1022007B0F0BD08400090124ED1
:101AA00007D000F04BF830680028FAD006E000F0CC
:101AB00047F800F043F830680028F8D0AC710121F5
:101AC0000098484007B0F0BD002005900121029128
:101AD0000649019104900420039001A80449FFF7EE
:101AE00019F9C046F4FB03207C0100D0241F00102C
:101AF0002C1F0010F0B503AF83B00E4D2B88002BC8
:101B000002D0984703B0F0BD14231B881824248802
:101B10000194094E029018460C4631461646019A29
:101B2000904721463246034602982B80984703B0DF
:101B3000F0BDC046F2FB03204D43000072B6704773
:101B400062B670474008401C0138FDD17047EFF382
:101B50001080704700DEFEDE80B500AFFEE7D4D413
:101B60002F686F6D652F6D696F636173612F2E63D1
:101B70006172676F2F72656769737472792F737200
:101B8000632F696E6465782E6372617465732E6964
:101B90006F2D3139343963663863366235623535D5
:101BA00037662F6465666D742D7274742D312E3115
:101BB0002E302F7372632F6C69622E7273007372F2
:101BC000632F6D61696E2E7273002F686F6D652FC4
:101BD0006D696F636173612F2E636172676F2F721E
:101BE000656769737472792F7372632F696E6465A8
:101BF000782E6372617465732E696F2D31393439B3
:101C00006366386336623562353537662F727032F7
:101C10003034302D68616C2D302E31302E322F73E0
:101C200072632F73696F2E7273002F686F6D652F4B
:101C30006D696F636173612F2E636172676F2F72BD
:101C4000656769737472792F7372632F696E646547
:101C5000782E6372617465732E696F2D3139343952
:101C60006366386336623562353537662F6465667C
:101C70006D742D7274742D312E312E302F7372636A
:101C80002F6368616E6E656C2E727300BE1B001050
:101C90000B0000001D0000002D000000BE1B001006
:101CA0000B0000001C0000002C0000003030303120
:101CB00030323033303430353036303730383039F8
:101CC00031303131313231333134313531363137F0
:101CD00031383139323032313232323332343235D6
:101CE00032363237323832393330333133323333BC
:101CF00033343335333633373338333934303431A2
:101D00003432343334343435343634373438343987
:101D1000353035313532353335343535353635377F
:101D20003538353936303631363236333634363565
:101D3000363636373638363937303731373237334B
:101D40003734373537363737373837393830383131
:101D50003832383338343835383638373838383917
:101D6000393039313932393339343935393639370F
:101D70003938393972616E676520656E6420696E25
:101D800064657820206F7574206F662072616E67BD
:101D90006520666F7220736C696365206F66206CC6
:101DA000656E677468200000741D0010100000004C
:101DB000841D00102200000072616E67652073743C
:101DC00061727420696E646578200000B81D00108F
:101DD00012000000841D00102200000063616C6C82
:101DE000656420604F7074696F6E3A3A756E7772F1
:101DF0006170282960206F6E206120604E6F6E65D3
:101E0000602076616C75653A0100000000000000FA
:101E1000071E001001000000071E00100100000056
:101E200070616E69636B6564206174203A0A00001A
:101E30000100000000000000FF00000000000000A2
:101E40000000000001000000AF140010BF140010DB
:101E5000351500106465666D74206C6F6767657278
:101E60002074616B656E207265656E7472616E744C
:101E70006C790000541E00101E000000601B001052
:101E80005D000000960000000D0000006465666DB6
:101E9000742072656C65617365206F7574206F6660
:101EA00020636F6E746578748C1E00101C00000037
:101EB000601B00105D000000CB0000000D00000062
:101EC0002A1C001061000000260000001F00000016
:101ED000000000000400000004000000B119001020
:101EE000696E7465726E616C206572726F723A20F1
:101EF000656E746572656420756E72656163686194
:101F0000626C6520636F64653A2054686973204D84
:101F10004355206F6E6C7920686173203220636FA7
:101F20007265732EE01E001044000000CA1B0010F2
:0C1F30005F0000007100000012000000C3
:101F3C006465666D74000000534547474552205256
:101F4C0054540000000000000100000000000000DC
:101F5C00B8FB0320FCFB0320000400000000000081
:081F6C0000000000010000006C
:04000005100001C125
:00000001FF
